S01800004672656552544F532D68616D6D696E672E7372656334
S11300000C9434000C9451000C9451000C94510045
S11300100C9451000C9451000C9451000C94510018
S11300200C9451000C9451000C9451000C946F03E7
S11300300C9451000C9451000C9451000C945100F8
S11300400C9451000C9451000C9451000C945100E8
S11300500C9451000C9451000C9451000C945100D8
S11300600C9451000C94510011241FBECFEFD8E022
S1130070DEBFCDBF11E0A0E0B1E0E4EBF0E102C0EF
S113008005900D92A231B107D9F721E0A2E1B1E0C8
S113009001C01D92AB36B207E1F70E9405070C942C
S11300A058080C9400009F92AF92BF92CF92DF92B7
S11300B0EF92FF920F931F93CF93DF9300D0CDB7AE
S11300C0DEB75C019C012F5F3F4F681B790B1A82DE
S11300D019826115710509F4D4C0F901AB014F5FB0
S11300E05F4F480F591FD90190E08D918A7A982764
S11300F0A417B507D1F7ADC081918C7C98274E1712
S11301005F07D1F7CFC08191807F98272F5F3F4F42
S113011026173707C0F3E3C0019680FF02C0318180
S11301202327319686179707B8F349815A81822F7E
S113013082958F7028272F7086E999E602C09595DD
S113014087952A95E2F781709927880F991F880F60
S1130150991F880F991F840F951F9A838983CB0158
S1130160880F991F880F991F880F991F009709F40A
S11301706DC09C012227232B21F4982F882708E0A7
S113018001C000E19C012227307F232B39F48295A2
S11301909295907F9827807F982704509C0122276E
S11301A0307C232B29F4880F991F880F991F025044
S11301B099230CF0015010E00530110508F446C0F5
S11301C0A4E0B0E0CC24C394D12C0F2EF6E9EF2E9A
S11301D0F9E6FF2EF02DCD010397A60102C0440FCE
S11301E0551F8A95E2F76115710589F0F50180E0E4
S11301F090E0912C01969A0128233923232B11F0A6
S113020021819226319668177907A1F701C0912CB4
S113021029813A81892D82958F7089258F70A70154
S113022002C0559547958A95E2F7CA0181709927CE
S11302300A2E02C0880F991F0A94E2F7280F391F6B
S11302403A8329831196A017B10729F689819A81E7
S113025065C0A981BA81892F82958F7098279F7074
S113026006E919E6780102C0F594E7949A95E2F755
S1130270C701817099278A0F9B1F9A83898390E015
S11302803BCF89819A819A83898389819A819A83D0
S1130290898389819A819A83898389819A819A83BE
S11302A08983D4CF49815A81892F82958F70982769
S11302B09F70E6E9F9E6DF0102C0B595A7959A9526
S11302C0E2F7CD0181709927880F991F840F951F3C
S11302D09A838983F90120E030E090E014CF4981CA
S11302E05A81892F82958F7098279F7026E939E665
S11302F0F90102C0F595E7959A95E2F7CF0181706F
S11303009927880F991F880F991F840F951F9A8327
S11303108983F50180E090E020E0FECE0F900F90FD
S1130320DF91CF911F910F91FF90EF90DF90CF90CD
S1130330BF90AF909F900895CF93DF93EC010E94FC
S1130340E204CE010E943007EC010E94A305CE0115
S1130350DF91CF910895CF93DF93009741F0EC01A3
S11303600E94E204CE010E94C8070E94A305DF9107
S1130370CF910895FC010396928381832FEF3FEF81
S1130380348323839683858390878783108208959B
S1130390FC01118610860895CF93DF939C01FB0125
S11303A0DC011196CD91DC911297D383C2838C81A9
S11303B09D81958384838C819D81DC0113967C933C
S11303C06E9312977D836C8331872087F901808136
S11303D08F5F8083DF91CF910895CF93DF93FC01EA
S11303E0A085B185C281D381848195819D838C83CD
S11303F0C481D581828193819B838A8311968D9157
S11304009C911297E817F90731F48481958112962B
S11304109C938E931197118610868C9181508C93A6
S11304208C91DF91CF91089531E1FC0130833197B4
S113043022E220833197A3E3A0833197608331972D
S1130440708331971082319760E86083319710820E
S1130450319762E06083319763E06083319764E0B1
S11304606083319765E06083319766E060833197FC
S113047067E06083319768E06083319769E0608367
S1130480319760E1608331973083319732E1308373
S1130490319733E13083319734E13083319735E15B
S11304A03083319736E13083319737E130833197A8
S11304B038E13083319739E13083319730E230834A
S11304C0319731E2308331972083319723E22083BF
S11304D03197408331975083319726E220833197B7
S11304E027E22083319728E22083319729E2208371
S11304F0319720E32083319721E320838697089561
S11305001092890089EF809388008BE080938100AA
S1130510EFE6F0E0808182608083A0916301B09176
S11305206401CD91CDBFDD91DEBFFF91EF91DF91ED
S1130530CF91BF91AF919F918F917F916F915F9177
S11305404F913F912F911F910F91FF90EF90DF906A
S1130550CF90BF90AF909F908F907F906F905F905F
S11305604F903F902F901F900F900FBE0F900895C3
S113057081E008950F920FB6F8940F921F92112400
S11305802F923F924F925F926F927F928F929F929F
S1130590AF92BF92CF92DF92EF92FF920F931F938D
S11305A02F933F934F935F936F937F938F939F9377
S11305B0AF93BF93CF93DF93EF93FF93A091630126
S11305C0B09164010DB60D920EB60D920E942206F2
S11305D0A0916301B0916401CD91CDBFDD91DEBFE7
S11305E0FF91EF91DF91CF91BF91AF919F918F9147
S11305F07F916F915F914F913F912F911F910F9137
S1130600FF90EF90DF90CF90BF90AF909F908F902E
S11306107F906F905F904F903F902F901F900F901E
S11306200FBE0F9008950F920FB6F8940F921F9279
S113063011242F923F924F925F926F927F928F92EA
S11306409F92AF92BF92CF92DF92EF92FF920F935D
S11306501F932F933F934F935F936F937F938F9346
S11306609F93AF93BF93CF93DF93EF93FF93A091A7
S11306706301B09164010DB60D920EB60D920E9405
S1130680E80481110E942206A0916301B0916401E3
S1130690CD91CDBFDD91DEBFFF91EF91DF91CF9181
S11306A0BF91AF919F918F917F916F915F914F9186
S11306B03F912F911F910F91FF90EF90DF90CF907A
S11306C0BF90AF909F908F907F906F905F904F906E
S11306D03F902F901F900F900FBE0F9008950E948F
S11306E013031895E0912B01F0912C018081811165
S11306F007C08FEF9FEF9093160180931501089523
S1130700E0912B01F0912C010580F681E02D06800B
S1130710F781E02D828193819093160180931501D6
S11307200895CFE3D1E088818230E8F30E94BA02D1
S1130730FACF4F925F926F927F928F929F92AF9275
S1130740BF92CF92DF92EF92FF920F93CF93DF93FA
S11307504C016B015A012901CA010E949C013C0110
S1130760892B09F4F4C08CE290E00E949C01EC0116
S1130770892BC1F0788E6F8AA50165EA70E0C30108
S11307800E94510881E0A81AB1088F89988DA80E9B
S1130790B91EBCA2ABA2D6018C91898F8C91811118
S11307A005C018C0C3010E94AB01D1C0AE01465EB2
S11307B05F4FF6013196B8E0CB0ED11CCF012191E9
S11307C0DA012D93AD01DC018C91882319F0EC152D
S11307D0FD05A1F718A2043008F003E00E8B0DA369
S11307E01EA26E01B2E0CB0ED11CC6010E94C8014C
S11307F0CE010C960E94C801D987C88784E090E096
S1130800801B91099D878C87DB8BCA8B1FA218A63E
S113081019A61AA61BA6A201B401C5010E941402BE
S113082099838883E114F10419F0F701D183C0831B
S11308300FB6F8940F9280911F018F5F80931F0170
S11308408091630190916401892B89F5D0936401AF
S1130850C093630180911F018130C9F58FE391E05A
S11308600E94BA0188E491E00E94BA0181E591E016
S11308700E94BA018AE591E00E94BA0186E391E000
S11308800E94BA018DE291E00E94BA0180E291E0F7
S11308900E94BA0186E391E090932C0180932B018E
S11308A08DE291E090932A018093290110C08091F8
S11308B01B0181110CC0E0916301F09164019689E0
S11308C08E89891720F0D0936401C09363018091CD
S11308D017018F5F80931701E0906301F09064012A
S11308E06BA17CA1888199810E945300D7019296C3
S11308F09C938E9391978E8990911C01981710F474
S113090080931C0190E09C01220F331F220F331FA0
S1130910220F331F820F931FB601815C9E4F0E94EA
S1130920CC010F900FBE80911B01882361F0E091F0
S11309306301F091640196898E89981730F40E94BE
S1130940BA0281E005C081E003C081E001C08FEFFD
S1130950DF91CF910F91FF90EF90DF90CF90BF90F8
S1130960AF909F908F907F906F905F904F9008957D
S1130970EF92FF920F930F2EF3E1EF2EF1E0FF2E93
S1130980F02D00E020E030E044E650E066E071E065
S113099081E993E00E949903813081F4F8948FEF08
S11309A09FEF909316018093150181E080931B01C2
S11309B010921E0110921D010E9480020F91FF905F
S11309C0EF900895809112018F5F80931201089532
S11309D0CF92DF92EF92FF920F931F93CF93DF9307
S11309E080911201811199C0E0901D01F0901E01C7
S11309F08FEFE81AF80AF0921E01E0921D01E1144B
S1130A00F104B9F480912B0190912C0120912901DA
S1130A1030912A0130932C0120932B0190932A01C9
S1130A2080932901809118018F5F809318010E949F
S1130A3072038091150190911601E816F90610F4DD
S1130A40D12C53C0D12CCC24C394E0912B01F09130
S1130A502C018081811107C08FEF9FEF90931601C5
S1130A608093150142C0E0912B01F0912C01058087
S1130A70F681E02DC681D7818A819B81E816F9062B
S1130A8028F490931601809315012FC08E010E5FF8
S1130A901F4FC8010E94ED018C899D89892B21F08B
S1130AA0CE010C960E94ED018E8990911C0198173D
S1130AB010F480931C0190E09C01220F331F220F3D
S1130AC0331F220F331F820F931FB801815C9E4F87
S1130AD00E94CC01E0916301F09164019E898689B2
S1130AE0981708F4B2CFDC2CB0CFE0916301F091F9
S1130AF06401868990E0FC01EE0FFF1FEE0FFF1FDB
S1130B00EE0FFF1F8E0F9F1FFC01E15CFE4F8081E3
S1130B10823048F0DD24D39406C080911A018F5F9F
S1130B2080931A01D12C80911901882311F0DD24BE
S1130B30D3948D2DDF91CF911F910F91FF90EF9062
S1130B40DF90CF900895DF92EF92FF920F931F935F
S1130B50CF93DF930FB6F8940F92809112018150D6
S1130B60809312018091120181115FC080911F0155
S1130B70811133C05DC0D7011596ED91FC91169794
S1130B80C681D781CE010C960E94ED018E010E5FC5
S1130B901F4FC8010E94ED018E8990911C01981786
S1130BA010F480931C0190E09C01220F331F220F4C
S1130BB0331F220F331F820F931FB801815C9E4F96
S1130BC00E94CC01E0916301F09164019E898689C1
S1130BD0981768F0D09219010AC0C0E0D0E00F2E37
S1130BE0F0E2EF2EF1E0FF2EF02DDD24D394F70197
S1130BF080818111C0CFCD2B11F00E947203C0916E
S1130C001A01CC2351F0D1E00E94E8048111D09361
S1130C101901C150C9F710921A0180911901882352
S1130C2031F00E94BA0281E003C080E001C080E09C
S1130C300F900FBEDF91CF911F910F91FF90EF9016
S1130C40DF900895CF93DF9380911201882321F0E0
S1130C5081E080931901C1C010921901C091630110
S1130C60D0916401A0916301B0916401E0916301AA
S1130C70F091640193966D917C9194978081918118
S1130C800E9453009AA389A320911C01822F90E013
S1130C90FC01EE0FFF1FEE0FFF1FEE0FFF1FE80F0B
S1130CA0F91FE15CFE4F3081311111C02150822FB8
S1130CB090E0FC01EE0FFF1FEE0FFF1FEE0FFF1F72
S1130CC0E80FF91FE15CFE4F3081332379F3AC0167
S1130CD0440F551F440F551F440F551F480F591FEC
S1130CE0DA01A15CBE4F1196ED91FC91129702803E
S1130CF0F381E02D1296FC93EE9311974E5B5E4FB9
S1130D00E417F50729F442815381FD01528341839D
S1130D10FC01EE0FFF1FEE0FFF1FEE0FFF1F8E0FE4
S1130D209F1FFC01E15CFE4F0180F281E02D868172
S1130D309781909364018093630120931C01A09197
S1130D406301B0916401E0916301F09164019396B1
S1130D506D917C919497808191810E945300E091E0
S1130D606301F091640121A132A18227932792A308
S1130D7081A3E0916301F091640181A192A1892B87
S1130D8019F40E94290729C0A0916301B09164015C
S1130D90C0916301D0916401E0916301F091640119
S1130DA001A0F2A1E02DF695E795F695E795F69565
S1130DB0E79588819981E80FF91F408191962D91DB
S1130DC03C9192972770332781E090E002C0880F0E
S1130DD0991F2A95E2F784278083DF91CF910895A4
S1130DE0CF93DF9300D0CDB7DEB78DE289838A83BA
S1130DF082E38983FECFCF93DF9300D0CDB7DEB7F4
S1130E0085E589838DE28A83FFCFEF92FF920F936A
S1130E108FEF84B9E12CF12C01E020E030E044E6CE
S1130E2050E06BE071E080EF96E00E94990320E0CF
S1130E3030E044E650E06EE071E08BEF96E00E9413
S1130E4099030E94B80480E090E00F91FF90EF9026
S1130E50089581E090E09093660180936501089580
S1130E600F931F93CF93DF938230910510F482E0A8
S1130E7090E0E0916901F0916A0120E030E0A0E0A7
S1130E80B0E0309719F140815181028113814817F4
S1130E905907C8F08417950769F4109731F0129632
S1130EA00C93129713961C9327C000936901109317
S1130EB06A0122C02115310519F04217530718F4AD
S1130EC09A01BD01EF01DF01F801DBCF21153105E6
S1130ED0F9F0281B390B2430310580F48A819B8179
S1130EE06115710521F0FB019383828304C0909303
S1130EF06A0180936901FE01329644C0FE01E20F4B
S1130F00F31F8193919322503109398328833AC086
S1130F102091670130916801232B41F42091020153
S1130F2030910301309368012093670120910001FF
S1130F30309101012115310541F42DB73EB740919F
S1130F40040150910501241B350BE0916701F091D8
S1130F506801E217F307A0F42E1B3F0B281739078B
S1130F6078F0AC014E5F5F4F2417350748F04E0F01
S1130F705F1F50936801409367018193919302C06E
S1130F80E0E0F0E0CF01DF91CF911F910F91089540
S1130F90CF93DF93009709F481C0FC013297138249
S1130FA01282A0916901B0916A01109781F42081A5
S1130FB03181820F931F20916701309168012817B6
S1130FC0390751F5F0936801E093670167C0ED01BB
S1130FD020E030E0CE17DF0740F44A815B819E01B8
S1130FE041155105F1F0EA01F5CFD383C283408165
S1130FF05181840F951FC817D90759F488819981A5
S1131000840F951F0296918380838A819B819383A9
S113101082832115310529F4F0936A01E093690173
S11310203DC0E901FB83EA8349915991C40FD51F5F
S1131030EC17FD0761F480819181840F951F02965E
S1131040E90199838883828193819B838A83E0E089
S1131050F0E012968D919C911397009719F0FD0181
S1131060DC01F7CF8D919C9111979D012E5F3F4F2D
S1131070820F931F20916701309168012817390767
S113108069F4309729F410926A011092690102C040
S113109013821282B0936801A0936701DF91CF910C
S11310A00895DC0101C06D9341505040E0F708956C
S10710B0F894FFCFDE
S11310B400006B01200049444C4500743100743233
S10510C4000026
S9030000FC
