:100000000C9434000C9451000C9451000C94510049
:100010000C9451000C9451000C9451000C9451001C
:100020000C9451000C9451000C9451000C94390321
:100030000C9451000C9451000C9451000C945100FC
:100040000C9451000C9451000C9451000C945100EC
:100050000C9451000C9451000C9451000C945100DC
:100060000C9451000C94510011241FBECFEFD8E026
:10007000DEBFCDBF11E0A0E0B1E0E2EEFFE002C0E4
:1000800005900D92A231B107D9F721E0A2E1B1E0CC
:1000900001C01D92AB36B207E1F70E949C060C949A
:1000A000EF070C9400009F92AF92BF92CF92DF9225
:1000B000EF92FF920F931F93CF93DF935C01AC01FC
:1000C0004F5F5F4F681B790B09F4EEC0FA01EB013B
:1000D0002196C80FD91FDA0190E08D918A7A98276E
:1000E000AC17BD07D1F79DC091919C7C2927CE17F5
:1000F000DF07D1F7A6C09191907F49272F5F3F4F2F
:1001000026173707C0F3B6C02F5F3F4F20FF02C04E
:1001100041819427319626173707B0F3892F8295AE
:100120008F7098279F7026E939E6A90102C055957E
:1001300047959A95E2F7CA0181709927880F991F10
:10014000880F991F880F991F8A0F9B1F9B012F5F94
:100150003F4F09F4AFC0A9014427452B21F4322FAA
:10016000222748E001C040E1F901EE27F07FEF2BA4
:1001700039F422953295307F3227207F3227445040
:1001800035FF02C0425001C043504E5F042F10E0C3
:100190000430110508F48EC0C4E0D0E0CC24C39430
:1001A000D12C0F2EF6E9EF2EF9E6FF2EF02D9E0151
:1001B00023503109D60102C0AA0FBB1F2A95E2F7CE
:1001C0006115710591F0F50120E030E0912C2F5F71
:1001D0003F4FAD0142235323452B11F0418194261B
:1001E00031966217730799F701C0912C292D22953A
:1001F0002F7029252F70A70102C0559547952A9584
:10020000E2F79A01217033270C2E02C0220F331F10
:100210000A94E2F7820F931F21960C171D0738F6F8
:1002200049C0892F82958F7098279F70A6E9B9E6FB
:1002300002C0B595A7959A95E2F7A170BB2720E07B
:1002400053CF822F82958F7028272F70C6E9D9E669
:1002500002C0D595C7952A95E2F7C170DD27CE017A
:10026000880F991FEC01CA0FDB1FFA0120E030E074
:1002700040E041CF842F82958F7048274F7086E9E8
:1002800099E602C0959587954A95E2F7817099277E
:10029000880F991F880F991FDC01AC0FBD1FF50156
:1002A00020E030E090E030CF9B012F5F3F4F80E0B7
:1002B00090E051CFDF91CF911F910F91FF90EF9080
:1002C000DF90CF90BF90AF909F900895CF93DF9332
:1002D000EC010E94AC04CE010E94C706EC010E9412
:1002E0006D05CE01DF91CF910895CF93DF930097F5
:1002F00041F0EC010E94AC04CE010E945F070E9415
:100300006D05DF91CF910895FC010396928381835F
:100310002FEF3FEF348323839683858390878783F2
:1003200010820895FC01118610860895CF93DF9303
:100330009C01FB01DC011196CD91DC911297D383D6
:10034000C2838C819D81958384838C819D81DC0116
:1003500013967C936E9312977D836C8331872087ED
:10036000F90180818F5F8083DF91CF910895CF93D2
:10037000DF93FC01A085B185C281D3818481958101
:100380009D838C83C481D581828193819B838A8361
:1003900011968D919C911297E817F90731F4848199
:1003A000958112969C938E931197118610868C914D
:1003B00081508C938C91DF91CF91089531E1FC01B4
:1003C0003083319722E220833197A3E3A0833197D2
:1003D00060833197708331971082319760E8608332
:1003E00031971082319762E06083319763E06083D8
:1003F000319764E06083319765E06083319766E010
:100400006083319767E06083319768E0608331975C
:1004100069E06083319760E1608331973083319781
:1004200032E13083319733E13083319734E13083E7
:10043000319735E13083319736E13083319737E1B9
:100440003083319738E13083319739E13083319708
:1004500030E23083319731E2308331972083319716
:1004600023E220833197408331975083319726E2EE
:100470002083319727E22083319728E22083319728
:1004800029E22083319720E32083319721E32083E1
:10049000869708951092890089EF809388008BE0F9
:1004A00080938100EFE6F0E0808182608083A091FC
:1004B0006301B0916401CD91CDBFDD91DEBFFF91AD
:1004C000EF91DF91CF91BF91AF919F918F917F91EC
:1004D0006F915F914F913F912F911F910F91FF90DD
:1004E000EF90DF90CF90BF90AF909F908F907F90D4
:1004F0006F905F904F903F902F901F900F900FBE86
:100500000F90089581E008950F920FB6F8940F921E
:100510001F9211242F923F924F925F926F927F927F
:100520008F929F92AF92BF92CF92DF92EF92FF9203
:100530000F931F932F933F934F935F936F937F93EB
:100540008F939F93AF93BF93CF93DF93EF93FF93DB
:10055000A0916301B09164010DB60D920EB60D929B
:100560000E94EC05A0916301B0916401CD91CDBFD3
:10057000DD91DEBFFF91EF91DF91CF91BF91AF9100
:100580009F918F917F916F915F914F913F912F91AB
:100590001F910F91FF90EF90DF90CF90BF90AF90A1
:1005A0009F908F907F906F905F904F903F902F9093
:1005B0001F900F900FBE0F9008950F920FB6F894F2
:1005C0000F921F9211242F923F924F925F926F923F
:1005D0007F928F929F92AF92BF92CF92DF92EF92D3
:1005E000FF920F931F932F933F934F935F936F93BC
:1005F0007F938F939F93AF93BF93CF93DF93EF93AB
:10060000FF93A0916301B09164010DB60D920EB6F7
:100610000D920E94B20481110E94EC05A091630129
:10062000B0916401CD91CDBFDD91DEBFFF91EF911F
:10063000DF91CF91BF91AF919F918F917F916F91FA
:100640005F914F913F912F911F910F91FF90EF90EC
:10065000DF90CF90BF90AF909F908F907F906F90E2
:100660005F904F903F902F901F900F900FBE0F9074
:1006700008950E94DD021895E0912B01F0912C0164
:100680008081811107C08FEF9FEF909316018093B7
:1006900015010895E0912B01F0912C010580F68160
:1006A000E02D0680F781E02D8281938190931601E1
:1006B000809315010895CFE3D1E088818230E8F37B
:1006C0000E948402FACF4F925F926F927F928F9234
:1006D0009F92AF92BF92CF92DF92EF92FF920F93D1
:1006E000CF93DF934C016B015A012901CA010E948B
:1006F00066013C01892B09F4F4C08CE290E00E9471
:100700006601EC01892BC1F0788E6F8AA50165EA3C
:1007100070E0C3010E94E80781E0A81AB1088F8940
:10072000988DA80EB91EBCA2ABA2D6018C91898F60
:100730008C91811105C018C0C3010E947501D1C000
:10074000AE01465E5F4FF6013196B8E0CB0ED11C8C
:10075000CF012191DA012D93AD01DC018C91882329
:1007600019F0EC15FD05A1F718A2043008F003E01C
:100770000E8B0DA31EA26E01B2E0CB0ED11CC601E2
:100780000E949201CE010C960E949201D987C887DF
:1007900084E090E0801B91099D878C87DB8BCA8B5E
:1007A0001FA218A619A61AA61BA6A201B401C5016C
:1007B0000E94DE0199838883E114F10419F0F701A6
:1007C000D183C0830FB6F8940F9280911F018F5F81
:1007D00080931F018091630190916401892B89F5B9
:1007E000D0936401C093630180911F018130C9F5EA
:1007F0008FE391E00E94840188E491E00E948401EB
:1008000081E591E00E9484018AE591E00E948401E3
:1008100086E391E00E9484018DE291E00E948401D0
:1008200080E291E00E94840186E391E090932C01A4
:1008300080932B018DE291E090932A01809329010E
:1008400010C080911B0181110CC0E0916301F091F7
:10085000640196898E89891720F0D0936401C09332
:100860006301809117018F5F80931701E09063010E
:10087000F09064016BA17CA1888199810E94530052
:10088000D70192969C938E9391978E8990911C019B
:10089000981710F480931C0190E09C01220F331FE5
:1008A000220F331F220F331F820F931FB601815C6B
:1008B0009E4F0E9496010F900FBE80911B018823CE
:1008C00061F0E0916301F091640196898E89981737
:1008D00030F40E94840281E005C081E003C081E021
:1008E00001C08FEFDF91CF910F91FF90EF90DF90DC
:1008F000CF90BF90AF909F908F907F906F905F90C0
:100900004F900895EF92FF920F930F2EF3E1EF2E89
:10091000F1E0FF2EF02D00E020E030E044E650E072
:1009200066E071E08BE593E00E946303813081F41F
:10093000F8948FEF9FEF909316018093150181E05B
:1009400080931B0110921E0110921D010E944A0209
:100950000F91FF90EF900895809112018F5F809327
:1009600012010895CF92DF92EF92FF920F931F939F
:10097000CF93DF9380911201811199C0E0901D0106
:10098000F0901E018FEFE81AF80AF0921E01E09233
:100990001D01E114F104B9F480912B0190912C0117
:1009A0002091290130912A0130932C0120932B01B1
:1009B00090932A0180932901809118018F5F809381
:1009C00018010E943C038091150190911601E816D0
:1009D000F90610F4D12C53C0D12CCC24C394E0914F
:1009E0002B01F0912C018081811107C08FEF9FEFC7
:1009F000909316018093150142C0E0912B01F09174
:100A00002C010580F681E02DC681D7818A819B81EA
:100A1000E816F90628F490931601809315012FC06B
:100A20008E010E5F1F4FC8010E94B7018C899D89FE
:100A3000892B21F0CE010C960E94B7018E899091EE
:100A40001C01981710F480931C0190E09C01220F68
:100A5000331F220F331F220F331F820F931FB80142
:100A6000815C9E4F0E949601E0916301F0916401C8
:100A70009E898689981708F4B2CFDC2CB0CFE0911C
:100A80006301F0916401868990E0FC01EE0FFF1F85
:100A9000EE0FFF1FEE0FFF1F8E0F9F1FFC01E15C8B
:100AA000FE4F8081823048F0DD24D39406C08091CF
:100AB0001A018F5F80931A01D12C8091190188232C
:100AC00011F0DD24D3948D2DDF91CF911F910F91E3
:100AD000FF90EF90DF90CF900895DF92EF92FF921A
:100AE0000F931F93CF93DF930FB6F8940F928091DB
:100AF00012018150809312018091120181115FC017
:100B000080911F01811133C05DC0D7011596ED9111
:100B1000FC911697C681D781CE010C960E94B70131
:100B20008E010E5F1F4FC8010E94B7018E89909100
:100B30001C01981710F480931C0190E09C01220F77
:100B4000331F220F331F220F331F820F931FB80151
:100B5000815C9E4F0E949601E0916301F0916401D7
:100B60009E898689981768F0D09219010AC0C0E062
:100B7000D0E00F2EF0E2EF2EF1E0FF2EF02DDD247D
:100B8000D394F70180818111C0CFCD2B11F00E9449
:100B90003C03C0911A01CC2351F0D1E00E94B20471
:100BA0008111D0931901C150C9F710921A01809197
:100BB0001901882331F00E94840281E003C080E0A3
:100BC00001C080E00F900FBEDF91CF911F910F9178
:100BD000FF90EF90DF900895CF93DF938091120103
:100BE000882321F081E0809319018EC010921901B1
:100BF000C0916301D0916401A0916301B09164013F
:100C0000E0916301F091640193966D917C919497CA
:100C1000808191810E9453009AA389A320911C0195
:100C2000822F90E0FC01EE0FFF1FEE0FFF1FEE0F73
:100C3000FF1FE80FF91FE15CFE4F3081311111C039
:100C40002150822F90E0FC01EE0FFF1FEE0FFF1FDF
:100C5000EE0FFF1FE80FF91FE15CFE4F30813323D9
:100C600079F3AC01440F551F440F551F440F551F16
:100C7000480F591FDA01A15CBE4F1196ED91FC910E
:100C800012970280F381E02D1296FC93EE93119758
:100C90004E5B5E4FE417F50729F442815381FD0155
:100CA00052834183FC01EE0FFF1FEE0FFF1FEE0F7B
:100CB000FF1F8E0F9F1FFC01E15CFE4F0180F28140
:100CC000E02D868197819093640180936301209346
:100CD0001C01E0916301F0916401C1A1D2A1A09136
:100CE0006301B0916401E0916301F0916401939616
:100CF0006D917C919497808191810E945300C817D7
:100D0000D90711F40E94C006DF91CF910895CF93C7
:100D1000DF9300D0CDB7DEB78DE289838A8382E38B
:100D20008983FECFCF93DF9300D0CDB7DEB785E5C3
:100D300089838DE28A83FFCFEF92FF920F938FEF2B
:100D400084B9E12CF12C01E020E030E044E650E0F1
:100D50006BE071E087E896E00E94630320E030E0FA
:100D600044E650E06EE071E082E996E00E946303A1
:100D70000E94820480E090E00F91FF90EF90089530
:100D800081E090E0909366018093650108950F9350
:100D90001F93CF93DF938230910510F482E090E0AF
:100DA000E0916901F0916A0120E030E0A0E0B0E05C
:100DB000309719F1408151810281138148175907F9
:100DC000C8F08417950769F4109731F012960C93C8
:100DD000129713961C9327C00093690110936A0120
:100DE00022C02115310519F04217530718F49A0152
:100DF000BD01EF01DF01F801DBCF21153105F9F06D
:100E0000281B390B2430310580F48A819B816115C0
:100E1000710521F0FB019383828304C090936A01E2
:100E200080936901FE01329644C0FE01E20FF31F78
:100E30008193919322503109398328833AC02091BC
:100E4000670130916801232B41F420910201309118
:100E500003013093680120936701209100013091D4
:100E600001012115310541F42DB73EB74091040130
:100E700050910501241B350BE0916701F091680149
:100E8000E217F307A0F42E1B3F0B2817390778F061
:100E9000AC014E5F5F4F2417350748F04E0F5F1FC0
:100EA00050936801409367018193919302C0E0E001
:100EB000F0E0CF01DF91CF911F910F910895CF9373
:100EC000DF93009709F481C0FC01329713821282EC
:100ED000A0916901B0916A01109781F4208131815C
:100EE000820F931F209167013091680128173907FD
:100EF00051F5F0936801E093670167C0ED0120E0D0
:100F000030E0CE17DF0740F44A815B819E01411536
:100F10005105F1F0EA01F5CFD383C28340815181BD
:100F2000840F951FC817D90759F488819981840FB8
:100F3000951F0296918380838A819B81938382830C
:100F40002115310529F4F0936A01E09369013DC050
:100F5000E901FB83EA8349915991C40FD51FEC172E
:100F6000FD0761F480819181840F951F0296E9014C
:100F700099838883828193819B838A83E0E0F0E078
:100F800012968D919C911397009719F0FD01DC0149
:100F9000F7CF8D919C9111979D012E5F3F4F820F4E
:100FA000931F20916701309168012817390769F470
:100FB000309729F410926A011092690102C01382DD
:100FC0001282B0936801A0936701DF91CF910895D9
:100FD000DC0101C06D9341505040E0F70895F89452
:020FE000FFCF41
:100FE20000006B01200049444C450074310074320A
:020FF2000000FD
:00000001FF
