:100000000C9434000C9451000C9451000C94510049
:100010000C9451000C9451000C9451000C9451001C
:100020000C9451000C9451000C9451000C945A0300
:100030000C9451000C9451000C9451000C945100FC
:100040000C9451000C9451000C9451000C945100EC
:100050000C9451000C9451000C9451000C945100DC
:100060000C9451000C94510011241FBECFEFD8E026
:10007000DEBFCDBF11E0A0E0B1E0E2EFF0E102C0F1
:1000800005900D92A231B107D9F721E0A2E1B1E0CC
:1000900001C01D92A537B207E1F70E9424070C9416
:1000A00077080C9400007F928F929F92AF92BF923C
:1000B000CF92DF92EF92FF920F931F93CF93DF9334
:1000C0004C01FC013196681B790B09F43FC0DF013C
:1000D000AB014F5F5F4F480F591FEF0190E08991CF
:1000E0008A7A9827C417D507D1F7892F82958F7000
:1000F00098279F70C6E9D9E602C0D595C7959A950D
:10010000E2F7C170DD2720E09D919C7C2927A41790
:10011000B507D1F7B9C09191907F2927E417F5076A
:10012000D1F7CDC02F5F3F4FA901550F440B542F7E
:10013000D901A40FB51F4A275B2740FF02C0818168
:10014000982731966217730769F703C0C0E0D0E0C3
:1001500090E0892F82958F7098279F7026E939E665
:10016000A90102C0559547959A95E2F7CA01817099
:100170009927880F991F880F991F880F991F8C0F37
:100180009D1F9B01220F331F220F331F220F331F8E
:100190002115310509F4ADC0A9014427452B21F4EF
:1001A000322F222748E001C040E1F901EE27F07F1D
:1001B000EF2B39F422953295307F3227207F32277A
:1001C0004450F901EE27F07CEF2B29F4220F331F66
:1001D000220F331F425033230CF04150A42EB12C78
:1001E00055E0A516B10408F484C004E010E0CC2466
:1001F000C394D12C0F2EF6E9EF2EF9E6FF2EF02D49
:10020000980123503109E60102C0CC0FDD1F2A9569
:10021000E2F761157105D1F0F40140E050E0712C76
:100220004F5F5F4F9A01330F220B322FDA01A20F7B
:10023000B31F2A273B272C233D23232B11F0218199
:10024000722631966417750759F701C0712C272D56
:1002500022952F7027252F70A70102C0559547952D
:100260002A95E2F79A0121703327002E02C0220F4F
:10027000331F0A94E2F7820F931F0F5F1F4F0A1577
:100280001B0509F0BDCF35C0822F82958F702827BE
:100290002F70A6E9B9E602C0B595A7952A95E2F7B1
:1002A000A170BB27CD01880F991FDC01AC0FBD1FCA
:1002B000AB014F5F5F4F480D591D20E02CCF822FBF
:1002C00082958F7028272F7086E999E602C0959550
:1002D00087952A95E2F781709927880F991F880FD3
:1002E000991FEC01CA0FDB1FF40120E030E090E021
:1002F00019CFDF91CF911F910F91FF90EF90DF9079
:10030000CF90BF90AF909F908F907F900895CF93A4
:10031000DF93EC010E940105CE010E944F07EC0122
:100320000E94C205CE01DF91CF910895CF93DF9354
:10033000009741F0EC010E940105CE010E94E70701
:100340000E94C205DF91CF910895FC01039692832C
:1003500081832FEF3FEF34832383968385839087B8
:10036000878310820895FC01118610860895CF932B
:10037000DF939C01FB01DC011196CD91DC9112977A
:10038000D383C2838C819D81958384838C819D815D
:10039000DC0113967C936E9312977D836C83318777
:1003A0002087F90180818F5F8083DF91CF9108954D
:1003B000CF93DF93FC01A085B185C281D381848175
:1003C00095819D838C83C481D581828193819B8318
:1003D0008A8311968D919C911297E817F90731F451
:1003E0008481958112969C938E9311971186108625
:1003F0008C9181508C938C91DF91CF91089531E154
:10040000FC013083319722E220833197A3E3A0835C
:10041000319760833197708331971082319760E80C
:10042000608331971082319762E06083319763E097
:100430006083319764E06083319765E06083319732
:1004400066E06083319767E06083319768E060839E
:10045000319769E06083319760E160833197308341
:10046000319732E13083319733E13083319734E192
:100470003083319735E13083319736E130833197DE
:1004800037E13083319738E13083319739E1308378
:10049000319730E23083319731E2308331972083D6
:1004A000319723E2208331974083319750833197EE
:1004B00026E22083319727E22083319728E22083A8
:1004C000319729E22083319720E32083319721E37C
:1004D0002083869708951092890089EF8093880081
:1004E0008BE080938100EFE6F0E080818260808382
:1004F000A0916D01B0916E01CD91CDBFDD91DEBFB8
:10050000FF91EF91DF91CF91BF91AF919F918F912B
:100510007F916F915F914F913F912F911F910F911B
:10052000FF90EF90DF90CF90BF90AF909F908F9013
:100530007F906F905F904F903F902F901F900F9003
:100540000FBE0F90089581E008950F920FB6F894B2
:100550000F921F9211242F923F924F925F926F92AF
:100560007F928F929F92AF92BF92CF92DF92EF9243
:10057000FF920F931F932F933F934F935F936F932C
:100580007F938F939F93AF93BF93CF93DF93EF931B
:10059000FF93A0916D01B0916E010DB60D920EB654
:1005A0000D920E944106A0916D01B0916E01CD9116
:1005B000CDBFDD91DEBFFF91EF91DF91CF91BF9174
:1005C000AF919F918F917F916F915F914F913F91EB
:1005D0002F911F910F91FF90EF90DF90CF90BF90E0
:1005E000AF909F908F907F906F905F904F903F90D3
:1005F0002F901F900F900FBE0F9008950F920FB67F
:10060000F8940F921F9211242F923F924F925F9273
:100610006F927F928F929F92AF92BF92CF92DF9212
:10062000EF92FF920F931F932F933F934F935F93FC
:100630006F937F938F939F93AF93BF93CF93DF93EA
:10064000EF93FF93A0916D01B0916E010DB60D92E5
:100650000EB60D920E94070581110E944106A091DD
:100660006D01B0916E01CD91CDBFDD91DEBFFF91E7
:10067000EF91DF91CF91BF91AF919F918F917F913A
:100680006F915F914F913F912F911F910F91FF902B
:10069000EF90DF90CF90BF90AF909F908F907F9022
:1006A0006F905F904F903F902F901F900F900FBED4
:1006B0000F9008950E94FE021895E0913501F09187
:1006C00036018081811107C08FEF9FEF9093160153
:1006D000809315010895E0913501F0913601058070
:1006E000F681E02D0680F781E02D82819381909341
:1006F000160180931501089501E211E00F2EF9E42F
:10070000EF2EF1E0FF2EF02D80912001882329F1BA
:100710000FB6F8940F92D8011596ED91FC911697AB
:10072000C681D781CE0102960E94D80180911F0117
:10073000815080931F01809120018150809320017E
:100740000F900FBE8F89988D0E949601CE010E9456
:100750009601809120018111DBCFF70180818230E9
:1007600098F20E94A502D0CF4F925F926F927F9233
:100770008F929F92AF92BF92CF92DF92EF92FF92B1
:100780000F93CF93DF934C016B015A012901CA01EA
:100790000E9487013C01892B09F4F8C08CE290E0AB
:1007A0000E948701EC01892BC1F0788E6F8AA50128
:1007B00065EA70E0C3010E94700881E0A81AB108E0
:1007C0008F89988DA80EB91EBCA2ABA2D6018C91C0
:1007D000898F8C91811105C018C0C3010E949601B8
:1007E000D5C0AE01465E5F4FF6013196B8E0CB0E44
:1007F000D11CCF012191DA012D93AD01DC018C9147
:10080000882319F0EC15FD05A1F718A2043008F0B3
:1008100003E00E8B0DA31EA26E01B2E0CB0ED11C25
:10082000C6010E94B301CE010C960E94B301D98784
:10083000C88784E090E0801B91099D878C87DB8BC3
:10084000CA8B1FA218A619A61AA61BA6A201B4013C
:10085000C5010E94FF0199838883E114F10419F016
:10086000F701D183C0830FB6F8940F9280911F01D6
:100870008F5F80931F0180916D0190916E01892B94
:10088000A9F5D0936E01C0936D0180911F01813055
:10089000E9F589E491E00E94A50182E591E00E94DA
:1008A000A5018BE591E00E94A50184E691E00E94FC
:1008B000A50180E491E00E94A50187E391E00E94F8
:1008C000A5018AE291E00E94A50181E291E00E94E7
:1008D000A50180E491E0909336018093350187E390
:1008E00091E0909334018093330110C080911B01FB
:1008F00081110CC0E0916D01F0916E0196898E8995
:10090000891720F0D0936E01C0936D01809117017B
:100910008F5F80931701E0906D01F0906E016BA1E5
:100920007CA1888199810E945300D70192969C9363
:100930008E9391978E8990911C01981710F4809353
:100940001C0190E09C01220F331F220F331F220F46
:10095000331F820F931FB601875B9E4F0E94B70122
:100960000F900FBE80911B01882361F0E0916D0113
:10097000F0916E0196898E89981730F40E94A50235
:1009800081E005C081E003C081E001C08FEFDF910D
:10099000CF910F91FF90EF90DF90CF90BF90AF90ED
:1009A0009F908F907F906F905F904F900895EF92FF
:1009B000FF920F930F2EF3E1EF2EF1E0FF2EF02DBB
:1009C00000E020E030E044E650E066E071E08CE7D3
:1009D00093E00E94B403813081F4F8948FEF9FEF8D
:1009E000909316018093150181E080931B01109272
:1009F0001E0110921D010E946B020F91FF90EF905B
:100A00000895809112018F5F809312010895CF9213
:100A1000DF92EF92FF920F931F93CF93DF9380911A
:100A20001201811199C0E0901D01F0901E018FEF1D
:100A3000E81AF80AF0921E01E0921D01E114F10497
:100A4000B9F48091350190913601209133013091B4
:100A50003401309336012093350190933401809313
:100A60003301809118018F5F809318010E945D030C
:100A70008091150190911601E816F90610F4D12C19
:100A800053C0D12CCC24C394E0913501F0913601B0
:100A90008081811107C08FEF9FEF909316018093A3
:100AA000150142C0E0913501F09136010580F681D3
:100AB000E02DC681D7818A819B81E816F90628F44A
:100AC00090931601809315012FC08E010E5F1F4F6A
:100AD000C8010E94D8018C899D89892B21F0CE0103
:100AE0000C960E94D8018E8990911C01981710F4E1
:100AF00080931C0190E09C01220F331F220F331FB3
:100B0000220F331F820F931FB801875B9E4F0E94F5
:100B1000B701E0916D01F0916E019E898689981769
:100B200008F4B2CFDC2CB0CFE0916D01F0916E01F2
:100B3000868990E0FC01EE0FFF1FEE0FFF1FEE0F06
:100B4000FF1F8E0F9F1FFC01E75BFE4F80818230ED
:100B500048F0DD24D39406C080911A018F5F809302
:100B60001A01D12C80911901882311F0DD24D3942E
:100B70008D2DDF91CF911F910F91FF90EF90DF901E
:100B8000CF900895DF92EF92FF920F931F93CF9330
:100B9000DF930FB6F8940F928091120181508093E9
:100BA00012018091120181115FC080911F0181119A
:100BB00033C05DC0D7011596ED91FC911697C681A3
:100BC000D781CE010C960E94D8018E010E5F1F4F77
:100BD000C8010E94D8018E8990911C01981710F4C9
:100BE00080931C0190E09C01220F331F220F331FC2
:100BF000220F331F820F931FB801875B9E4F0E9405
:100C0000B701E0916D01F0916E019E898689981778
:100C100068F0D09219010AC0C0E0D0E00F2EFAE2CD
:100C2000EF2EF1E0FF2EF02DDD24D394F70180812B
:100C30008111C0CFCD2B11F00E945D03C0911A012C
:100C4000CC2351F0D1E00E9407058111D093190106
:100C5000C150C9F710921A0180911901882331F00F
:100C60000E94A50281E003C080E001C080E00F90F7
:100C70000FBEDF91CF911F910F91FF90EF90DF900A
:100C80000895CF93DF9380911201882321F081E0B2
:100C900080931901C1C010921901C0916D01D091CA
:100CA0006E01A0916D01B0916E01E0916D01F09126
:100CB0006E0193966D917C919497808191810E94B1
:100CC00053009AA389A320911C01822F90E0FC017C
:100CD000EE0FFF1FEE0FFF1FEE0FFF1FE80FF91FB4
:100CE000E75BFE4F3081311111C02150822F90E01F
:100CF000FC01EE0FFF1FEE0FFF1FEE0FFF1FE80FAF
:100D0000F91FE75BFE4F3081332379F3AC01440FC9
:100D1000551F440F551F440F551F480F591FDA0127
:100D2000A75BBE4F1196ED91FC9112970280F38163
:100D3000E02D1296FC93EE931197445B5E4FE417FF
:100D4000F50729F442815381FD0152834183FC015F
:100D5000EE0FFF1FEE0FFF1FEE0FFF1F8E0F9F1FE7
:100D6000FC01E75BFE4F0180F281E02D86819781D7
:100D700090936E0180936D0120931C01A0916D01F1
:100D8000B0916E01E0916D01F0916E0193966D91BD
:100D90007C919497808191810E945300E0916D0134
:100DA000F0916E0121A132A18227932792A381A302
:100DB000E0916D01F0916E0181A192A1892B19F44E
:100DC0000E94480729C0A0916D01B0916E01C091A9
:100DD0006D01D0916E01E0916D01F0916E0101A065
:100DE000F2A1E02DF695E795F695E795F695E7954E
:100DF00088819981E80FF91F408191962D913C914E
:100E000092972770332781E090E002C0880F991FE6
:100E10002A95E2F784278083DF91CF910895CF93BD
:100E2000DF9300D0CDB7DEB78DE289838A8382E37A
:100E30008983FECFCF93DF9300D0CDB7DEB785E5B2
:100E400089838DE28A83FFCFEF92FF920F938FEF1A
:100E500084B9E12CF12C01E020E030E044E650E0E0
:100E60006BE071E08FE097E00E94B40320E030E097
:100E700044E650E06EE071E08AE197E00E94B4033E
:100E80000E94D70480E090E00F91FF90EF900895CA
:100E900081E090E09093700180936F0108950F932B
:100EA0001F93CF93DF938230910510F482E090E09E
:100EB000E0917301F091740120E030E0A0E0B0E037
:100EC000309719F1408151810281138148175907E8
:100ED000C8F08417950769F4109731F012960C93B7
:100EE000129713961C9327C00093730110937401FB
:100EF00022C02115310519F04217530718F49A0141
:100F0000BD01EF01DF01F801DBCF21153105F9F05B
:100F1000281B390B2430310580F48A819B816115AF
:100F2000710521F0FB019383828304C090937401C7
:100F300080937301FE01329644C0FE01E20FF31F5D
:100F40008193919322503109398328833AC02091AB
:100F5000710130917201232B41F4209102013091F3
:100F600003013093720120937101209100013091AF
:100F700001012115310541F42DB73EB7409104011F
:100F800050910501241B350BE0917101F091720124
:100F9000E217F307A0F42E1B3F0B2817390778F050
:100FA000AC014E5F5F4F2417350748F04E0F5F1FAF
:100FB00050937201409371018193919302C0E0E0DC
:100FC000F0E0CF01DF91CF911F910F910895CF9362
:100FD000DF93009709F481C0FC01329713821282DB
:100FE000A0917301B0917401109781F42081318137
:100FF000820F931F209171013091720128173907D8
:1010000051F5F0937201E093710167C0ED0120E0AA
:1010100030E0CE17DF0740F44A815B819E01411525
:101020005105F1F0EA01F5CFD383C28340815181AC
:10103000840F951FC817D90759F488819981840FA7
:10104000951F0296918380838A819B8193838283FB
:101050002115310529F4F0937401E09373013DC02B
:10106000E901FB83EA8349915991C40FD51FEC171D
:10107000FD0761F480819181840F951F0296E9013B
:1010800099838883828193819B838A83E0E0F0E067
:1010900012968D919C911397009719F0FD01DC0138
:1010A000F7CF8D919C9111979D012E5F3F4F820F3D
:1010B000931F20917101309172012817390769F44B
:1010C000309729F4109274011092730102C01382B8
:1010D0001282B0937201A0937101DF91CF910895B4
:1010E000DC0101C06D9341505040E0F70895F89441
:0210F000FFCF30
:1010F20000007501200049444C45007431007432EF
:021102000000EB
:00000001FF
