S01700004763634170706C69636174696F6E312E737265635B
S11300000C9434000C9451000C9451000C94510045
S11300100C9451000C9451000C9451000C94510018
S11300200C9451000C9451000C9451000C94370220
S11300300C9451000C9451000C9451000C945100F8
S11300400C9451000C9451000C9451000C945100E8
S11300500C9451000C9451000C9451000C945100D8
S11300600C9451000C94510011241FBECFEFD8E022
S1130070DEBFCDBF11E0A0E0B1E0EAE4FEE002C0E3
S113008005900D92A231B107D9F721E0A2E1B1E0C8
S113009001C01D92AB36B207E1F70E94CB050C9468
S11300A023070C940000AC01FB018617970748F462
S11300B080E090E02081822731974E175F07D1F7C7
S11300C0089580E090E00895CF93DF93EC010E94BF
S11300D0EB03CE010E94FB05EC010E94AC04CE01AF
S11300E0DF91CF910895CF93DF93009741F0EC0116
S11300F00E94EB03CE010E9493060E94AC04DF91A0
S1130100CF910895FC010396928381832FEF3FEFF3
S1130110348323839683858390878783108208950D
S1130120FC01118610860895CF93DF939C01FB0197
S1130130DC011196CD91DC911297D383C2838C811B
S11301409D81958384838C819D81DC0113967C93AE
S11301506E9312977D836C8331872087F9018081A8
S11301608F5F8083DF91CF910895CF93DF93FC015C
S1130170A085B185C281D381848195819D838C833F
S1130180C481D581828193819B838A8311968D91C9
S11301909C911297E817F90731F48481958112969E
S11301A09C938E931197118610868C9181508C9319
S11301B08C91DF91CF91089531E1FC013083319727
S11301C022E220833197A3E3A083319760833197A0
S11301D0708331971082319760E860833197108281
S11301E0319762E06083319763E06083319764E024
S11301F06083319765E06083319766E0608331976F
S113020067E06083319768E06083319769E06083D9
S1130210319760E1608331973083319732E13083E5
S1130220319733E13083319734E13083319735E1CD
S11302303083319736E13083319737E1308331971A
S113024038E13083319739E13083319730E23083BC
S1130250319731E2308331972083319723E2208331
S11302603197408331975083319726E22083319729
S113027027E22083319728E22083319729E22083E3
S1130280319720E32083319721E3208386970895D3
S11302901092890089EF809388008BE0809381001D
S11302A0EFE6F0E0808182608083A0916301B091E9
S11302B06401CD91CDBFDD91DEBFFF91EF91DF9160
S11302C0CF91BF91AF919F918F917F916F915F91EA
S11302D04F913F912F911F910F91FF90EF90DF90DD
S11302E0CF90BF90AF909F908F907F906F905F90D2
S11302F04F903F902F901F900F900FBE0F90089536
S113030081E008950F920FB6F8940F921F92112472
S11303102F923F924F925F926F927F928F929F9211
S1130320AF92BF92CF92DF92EF92FF920F931F93FF
S11303302F933F934F935F936F937F938F939F93E9
S1130340AF93BF93CF93DF93EF93FF93A091630198
S1130350B09164010DB60D920EB60D920E942B055C
S1130360A0916301B0916401CD91CDBFDD91DEBF59
S1130370FF91EF91DF91CF91BF91AF919F918F91B9
S11303807F916F915F914F913F912F911F910F91A9
S1130390FF90EF90DF90CF90BF90AF909F908F90A1
S11303A07F906F905F904F903F902F901F900F9091
S11303B00FBE0F9008950F920FB6F8940F921F92EC
S11303C011242F923F924F925F926F927F928F925D
S11303D09F92AF92BF92CF92DF92EF92FF920F93D0
S11303E01F932F933F934F935F936F937F938F93B9
S11303F09F93AF93BF93CF93DF93EF93FF93A0911A
S11304006301B09164010DB60D920EB60D920E9477
S1130410F10381110E942B05A0916301B091640145
S1130420CD91CDBFDD91DEBFFF91EF91DF91CF91F3
S1130430BF91AF919F918F917F916F915F914F91F8
S11304403F912F911F910F91FF90EF90DF90CF90EC
S1130450BF90AF909F908F907F906F905F904F90E0
S11304603F902F901F900F900FBE0F9008950E9401
S1130470DB011895E0912B01F0912C018081811111
S113048007C08FEF9FEF9093160180931501089595
S1130490E0912B01F0912C010580F681E02D06807E
S11304A0F781E02D82819381909316018093150149
S11304B00895CFE3D1E088818230E8F30E9482017D
S11304C0FACF2F923F924F925F926F927F929F92B8
S11304D0AF92BF92CF92DF92EF92FF920F931F934E
S11304E0CF93DF9300D000D0CDB7DEB71C016B01F2
S11304F05A013A832983902ECA010E9464008C0118
S1130500892B09F427C180E390E00E9464009C8356
S11305108B83009701F1DC0158961C930E93579737
S11305202501612C712CA50165EA70E0C8010E94C7
S11305301C07B1E0AB1AB108EB81FC818789908D6F
S1130540A80EB91EB0A6A7A2D6018C91818F8C915A
S1130550811105C019C0C8010E947300FBC04B8102
S11305605C81465E5F4FF6013196B8E0CB0ED11C3C
S1130570CF012191DA012D93AD01DC018C91882307
S113058019F0EC15FD05A1F7EB81FC8110A2092DF2
S1130590043008F003E0AB81BC8156960C93569767
S11305A099960C9399979A961C929A976D01B2E03A
S11305B0CB0ED11CC6010E9490008B819C810C96AD
S11305C00E9490008B819C81FC019187808784E04C
S11305D090E0801B9109DF01958784875396FC93F3
S11305E0EE93529713A614A615A616A617A649812C
S11305F05A81B101C5010E94DC00AB81BC81119616
S11306009C938E93E114F10419F0F701B183A08354
S1130610AB81BC8193964D925D926D927C9296973C
S1130620009163011091640197966D917C91989764
S11306308D919C910E945300F80192A381A30FB65F
S1130640F8940F9280911F018F5F80931F01809116
S1130650630190916401892B99F58B819C8190931E
S113066064018093630180911F018130E9F58FE378
S113067091E00E94820088E491E00E94820081E57A
S113068091E00E9482008AE591E00E94820086E364
S113069091E00E9482008DE291E00E94820080E25B
S11306A091E00E94820086E391E090932C01809374
S11306B02B018DE291E090932A018093290114C0CB
S11306C080911B01811110C0E0916301F0916401DC
S11306D09689AB81BC8156968C915697891720F0E8
S11306E0B0936401A0936301809117018F5F80939D
S11306F01701EB81FC81868990911C01981710F4F5
S113070080931C0190E09C01220F331F220F331FA2
S1130710220F331F820F931FB601815C9E4F0E94EC
S113072094000F900FBE80911B01882379F0E09113
S11307306301F09164019689AB81BC8156968C91DA
S1130740981730F40E94820181E005C081E003C063
S113075081E001C08FEF0F900F900F900F90DF9109
S1130760CF911F910F91FF90EF90DF90CF90BF90AA
S1130770AF909F907F906F905F904F903F902F909D
S11307800895EF92FF920F930F2EF3E1EF2EF1E015
S1130790FF2EF02D00E020E030E044E650E066E07B
S11307A071E089E592E00E946102813081F4F8945D
S11307B08FEF9FEF909316018093150181E0809352
S11307C01B0110921E0110921D010E9448010F91FD
S11307D0FF90EF900895809112018F5F8093120132
S11307E00895CF92DF92EF92FF920F931F93CF93CE
S11307F0DF9380911201811199C0E0901D01F09066
S11308001E018FEFE81AF80AF0921E01E0921D0112
S1130810E114F104B9F480912B0190912C01209101
S1130820290130912A0130932C0120932B019093BC
S11308302A0180932901809118018F5F8093180108
S11308400E943A028091150190911601E816F9066A
S113085010F4D12C53C0D12CCC24C394E0912B019F
S1130860F0912C018081811107C08FEF9FEF90934D
S113087016018093150142C0E0912B01F0912C01E7
S11308800580F681E02DC681D7818A819B81E81697
S1130890F90628F490931601809315012FC08E0158
S11308A00E5F1F4FC8010E94B5008C899D89892B5A
S11308B021F0CE010C960E94B5008E8990911C0106
S11308C0981710F480931C0190E09C01220F331FB1
S11308D0220F331F220F331F820F931FB801815C35
S11308E09E4F0E949400E0916301F09164019E89FF
S11308F08689981708F4B2CFDC2CB0CFE09163015D
S1130900F0916401868990E0FC01EE0FFF1FEE0F69
S1130910FF1FEE0FFF1F8E0F9F1FFC01E15CFE4FB8
S11309208081823048F0DD24D39406C080911A017E
S11309308F5F80931A01D12C80911901882311F0C3
S1130940DD24D3948D2DDF91CF911F910F91FF90D2
S1130950EF90DF90CF900895DF92EF92FF920F9384
S11309601F93CF93DF930FB6F8940F9280911201E7
S11309708150809312018091120181115FC0809196
S11309801F01811133C05DC0D7011596ED91FC9113
S11309901697C681D781CE010C960E94B5008E01B0
S11309A00E5F1F4FC8010E94B5008E8990911C01F3
S11309B0981710F480931C0190E09C01220F331FC0
S11309C0220F331F220F331F820F931FB801815C44
S11309D09E4F0E949400E0916301F09164019E890E
S11309E08689981768F0D09219010AC0C0E0D0E057
S11309F00F2EF0E2EF2EF1E0FF2EF02DDD24D39444
S1130A00F70180818111C0CFCD2B11F00E943A02F1
S1130A10C0911A01CC2351F0D1E00E94F10381115D
S1130A20D0931901C150C9F710921A01809119018C
S1130A30882331F00E94820181E003C080E001C07C
S1130A4080E00F900FBEDF91CF911F910F91FF9027
S1130A50EF90DF900895CF93DF9380911201882364
S1130A6021F081E08093190191C010921901C09185
S1130A706301D0916401A0916301B0916401E0919C
S1130A806301F091640197966D917C9198978081B0
S1130A9091810E9453009AA389A320911C01822F63
S1130AA090E0FC01EE0FFF1FEE0FFF1FEE0FFF1F84
S1130AB0E80FF91FE15CFE4F3081311111C0215064
S1130AC0822F90E0FC01EE0FFF1FEE0FFF1FEE0FD1
S1130AD0FF1FE80FF91FE15CFE4F3081332379F3E8
S1130AE0AC01440F551F440F551F440F551F480FA9
S1130AF0591FDA01A15CBE4F1196ED91FC9112973A
S1130B000280F381E02D1296FC93EE9311974E5BD5
S1130B105E4FE417F50729F442815381FD015283A6
S1130B204183FC01EE0FFF1FEE0FFF1FEE0FFF1FAF
S1130B308E0F9F1FFC01E15CFE4F0180F281E02DCE
S1130B4086819781909364018093630120931C01B3
S1130B50E0916301F0916401C1A1D2A1A09163016C
S1130B60B0916401E0916301F091640197966D91F5
S1130B707C919897808191810E945300C817D9076E
S1130B8019F40E94ED0502C00E94F405DF91CF9193
S1130B900895FFCFFFCFEF92FF920F93E12CF12C3A
S1130BA001E020E030E044E650E06BE071E089ECE5
S1130BB095E00E94610220E030E044E650E06EE0FF
S1130BC071E08AEC95E00E9461020E94C10380E01A
S1130BD090E00F91FF90EF90089581E090E0909362
S1130BE0660180936501089582E090E09093660128
S1130BF08093650108950F931F93CF93DF93823001
S1130C00910510F482E090E0E0916901F0916A01AD
S1130C1020E030E0A0E0B0E0309719F1408151814C
S1130C200281138148175907C8F08417950769F49E
S1130C30109731F012960C93129713961C9327C0B9
S1130C400093690110936A0122C02115310519F03E
S1130C504217530718F49A01BD01EF01DF01F801AF
S1130C60DBCF21153105F9F0281B390B2430310570
S1130C7080F48A819B816115710521F0FB019383C6
S1130C80828304C090936A0180936901FE013296C5
S1130C9044C0FE01E20FF31F819391932250310966
S1130CA0398328833AC02091670130916801232B4E
S1130CB041F42091020130910301309368012093A3
S1130CC0670120910001309101012115310541F4A2
S1130CD02DB73EB74091040150910501241B350BFB
S1130CE0E0916701F0916801E217F307A0F42E1B6D
S1130CF03F0B2817390778F0AC014E5F5F4F24177C
S1130D00350748F04E0F5F1F509368014093670109
S1130D108193919302C0E0E0F0E0CF01DF91CF91A5
S1130D201F910F910895CF93DF93009709F481C029
S1130D30FC01329713821282A0916901B0916A0179
S1130D40109781F420813181820F931F20916701D4
S1130D50309168012817390751F5F0936801E09341
S1130D60670167C0ED0120E030E0CE17DF0740F4F3
S1130D704A815B819E0141155105F1F0EA01F5CFED
S1130D80D383C28340815181840F951FC817D9072B
S1130D9059F488819981840F951F029691838083E9
S1130DA08A819B81938382832115310529F4F093F1
S1130DB06A01E09369013DC0E901FB83EA8349913B
S1130DC05991C40FD51FEC17FD0761F480819181FF
S1130DD0840F951F0296E901998388838281938108
S1130DE09B838A83E0E0F0E012968D919C911397A7
S1130DF0009719F0FD01DC01F7CF8D919C911197BB
S1130E009D012E5F3F4F820F931F20916701309108
S1130E1068012817390769F4309729F410926A0198
S1130E201092690102C013821282B0936801A093E8
S1130E306701DF91CF910895DC0101C06D934150AA
S10D0E405040E0F70895F894FFCF46
S1130E4A00006B01200049444C450074310074329F
S1050E5A000092
S9030000FC
